:020000040000FA
:0400000073EF0EF09C
:10020000003132333435363738392A3023FF000194
:100210000203040506070809507265737320232042
:10022000746F20436F6E742E00456E746572205497
:10023000656D70205265660054656D705F73656E04
:10024000736F720054656D70205265663A200054D9
:10025000656D702069733A20002020200020430043
:10026000256400001250800B1B6E12501224216E68
:1002700011AE3DEF01F03FEF01F040EF01F02180C2
:100280002150D8B446EF01F048EF01F05BEF01F0E8
:100290002128D8A44EEF01F050EF01F058EF01F003
:1002A000000E0F6E000E106E000E116E000E126E1C
:1002B000118E63EF01F0000E0F6E000E106E000E37
:1002C000116E000E126E1650800B1B1A165016245B
:1002D000206E15AE6EEF01F070EF01F071EF01F0DE
:1002E00020802050D8B477EF01F079EF01F08CEF47
:1002F00001F02028D8A47FEF01F081EF01F089EF11
:1003000001F0000E136E000E146E000E156E000E3E
:10031000166E158E94EF01F0000E136E000E146E23
:10032000000E156E000E166E2050D8B49AEF01F034
:100330009CEF01F0A4EF01F02150D8A4A2EF01F04E
:10034000A4EF01F0AEEF01F0000E0F6E000E106E84
:10035000000E116E000E126E46EF03F015500F02E4
:10036000F3CF26F0F4CF27F026501C6E1D6A1E6ACC
:100370001F6A2750226E236A246A256A14501002CD
:10038000F3CF26F0F4CF27F026501C26000E1D22B6
:100390001E221F2227502226000E2322242225223D
:1003A00013501102F3CF26F0F4CF27F026501C266D
:1003B000000E1D221E221F2227502226000E23225D
:1003C000242225221EC01FF01DC01EF01CC01DF0DF
:1003D0001C6A13501002F3CF26F0F4CF27F02650FA
:1003E0001C2627501D22000E1E22000E1F22145014
:1003F0000F02F3CF26F0F4CF27F026501C2627500B
:100400001D22000E1E22000E1F221EC01FF01DC046
:100410001EF01CC01DF01C6A13500F02F3CF26F013
:10042000F4CF27F026501C2627501D22000E1E2236
:10043000000E1F2215501002F3CF26F0F4CF27F044
:100440002650222627502322000E2422000E252289
:1004500014501102F3CF26F0F4CF27F026502226B5
:1004600027502322000E2422000E252215501102AF
:10047000F3CF26F0F4CF27F02650176E2750186ED2
:10048000196A1A6A19C01AF018C019F017C018F0C2
:10049000176A1750222618502322195024221A5066
:1004A00025221CC017F01DC018F01EC019F01FC077
:1004B0001AF0190E61EF02F0D8901A321932183280
:1004C0001732E82E5CEF02F0175022261850232234
:1004D000195024221A5025221EC01FF01DC01EF0E4
:1004E0001CC01DF01C6A205021C017F0186A172686
:1004F000000E1822820E1724266EFF0E1820276E7B
:1005000097EF02F0D89022362336243625361FAED8
:100510008CEF02F08EEF02F08FEF02F02280D89085
:100520001C361D361E361F362606D8A0270624AEDA
:100530009CEF02F09EEF02F082EF02F0000E206EC0
:100540001FAEA5EF02F0A7EF02F0CBEF02F0FF0E17
:100550001C14176EFF0E1D14186EFF0E1E14196E5C
:100560007F0E1F141A6E1750181019101A10D8B4D5
:10057000BCEF02F0BEEF02F0C2EF02F0010E206EFF
:10058000CBEF02F022A0C7EF02F0C9EF02F0CBEFF1
:1005900002F0BEEF02F02050D8B4D1EF02F0D3EF5A
:1005A00002F0F7EF02F0010E2226000E2322242291
:1005B000252225A0DEEF02F0E0EF02F0F7EF02F0D7
:1005C00022C017F023C018F024C019F025C01AF07B
:1005D0001A341A3219321832173217C022F018C0E2
:1005E00023F019C024F01AC025F0264A272A27BE76
:1005F00002EF03F0275008E12628D8A002EF03F00D
:1006000004EF03F00EEF03F0000E226E000E236ED7
:10061000800E246E7F0E256E3CEF03F027BE1BEF8D
:1006200003F0275006E12604D8B019EF03F01BEFC2
:1006300003F027EF03F0000E226E000E236E000E73
:10064000246E000E256E000E1B6E3CEF03F026C0DC
:1006500021F0FF0E2216FF0E23167F0E2416000E29
:10066000251621A036EF03F038EF03F039EF03F041
:10067000248ED8902130256E1B50251222C00FF0F9
:1006800023C010F024C011F025C012F012002B502E
:10069000800B386E2B502B243F6E2AAE52EF03F0A6
:1006A00054EF03F055EF03F03F803F50D8B45BEFB9
:1006B00003F05DEF03F072EF03F03F28D8A463EF7F
:1006C00003F065EF03F06DEF03F0000E286E000EEF
:1006D000296E000E2A6E000E2B6E2A8E000E2B6ED7
:1006E0007AEF03F0000E286E000E296E000E2A6EBF
:1006F000000E2B6E2F50800B381A2F502F24406E77
:100700002EAE85EF03F087EF03F088EF03F0408013
:100710004050D8B48EEF03F090EF03F0A5EF03F054
:100720004028D8A496EF03F098EF03F0A0EF03F071
:10073000000E2C6E000E2D6E000E2E6E000E2F6E13
:100740002E8E000E2F6EADEF03F0000E2C6E000EFD
:100750002D6E000E2E6E000E2F6E2C502D102E10B2
:100760002F10D8A4B6EF03F0B8EF03F0D0EF03F0EA
:10077000000E286E000E296E000E2A6E000E2B6EE3
:10078000800E2A127F0E2B1238502B1228C028F010
:1007900029C029F02AC02AF02BC02BF013EF05F056
:1007A0003F50D8A4D6EF03F0D8EF03F0E2EF03F008
:1007B000000E286E000E296E000E2A6E000E2B6EA3
:1007C00013EF05F040503FC030F0316A305E000E4C
:1007D000315A7F0E3024396E000E31203A6E28C017
:1007E00034F029C035F02AC036F02BC037F0000EA7
:1007F000286E000E296E000E2A6E000E2B6E000E63
:100800003B6E000E3C6E000E3D6E000E3E6E000E06
:10081000406E43EF04F04050D8B411EF04F013EFF2
:1008200004F02AEF04F0D8903436353636363736B1
:10083000D890283629362A362B363EAE22EF04F0E1
:1008400024EF04F025EF04F02880D8903B363C36A6
:100850003D363E362C50345C2D5035582E5036588F
:100860002F503758D8A037EF04F039EF04F042EF9B
:1008700004F03E8C2C50345E2D50355A2E50365A92
:100880002F50375A402A190E406449EF04F04BEFBD
:1008900004F00BEF04F03450351036103710D8B494
:1008A00054EF04F056EF04F06EEF04F03B806EEF6F
:1008B00004F0D890283629362A362B363EAE63EF20
:1008C00004F065EF04F066EF04F02880D8903B3622
:1008D0003C363D363E363906D8A03A062AAE73EF8E
:1008E00004F075EF04F059EF04F0000E406E3EAED8
:1008F0007CEF04F07EEF04F0A2EF04F0FF0E3B1457
:10090000306EFF0E3C14316EFF0E3D14326E7F0EC2
:100910003E14336E3050311032103310D8B493EF90
:1009200004F095EF04F099EF04F0010E406EA2EF91
:1009300004F028A09EEF04F0A0EF04F0A2EF04F072
:1009400095EF04F04050D8B4A8EF04F0AAEF04F0FB
:10095000CEEF04F0010E2826000E29222A222B2297
:100960002BA0B5EF04F0B7EF04F0CEEF04F028C0F1
:1009700030F029C031F02AC032F02BC033F03334CC
:10098000333232323132303230C028F031C029F0C7
:1009900032C02AF033C02BF0394A3A2A3ABED9EF96
:1009A00004F03A5008E13928D8A0D9EF04F0DBEF81
:1009B00004F0E6EF04F0000E3A6E3968000E286E7F
:1009C000000E296E000E2A6E000E2B6E3ABEF3EF5B
:1009D00004F03A5006E13904D8B0F1EF04F0F3EF37
:1009E00004F001EF05F0000E3A6E000E396E000EB5
:1009F000286E000E296E000E2A6E000E2B6E000E61
:100A0000386E39C03FF03FA008EF05F00AEF05F05F
:100A10000DEF05F02A8E0EEF05F02A9ED8903F309C
:100A20002B6EC4EF03F01200000E0F013A6F000EA0
:100A3000396F000E3B6FF90E926E290E386F000E63
:100A4000946EF00E936E000E8A6E000E8B6EF18E19
:100A50009590959295948BEC0EF080EC0EF0380EFC
:100A6000096E020E0A6E5FEC0DF01A0E0001AD6FFA
:100A7000F80EE82EFED7AD2FFCD700F080928094C0
:100A8000010EA7EC0EF0800EA7EC0EF0290E096EF9
:100A9000020E0A6E5FEC0DF0000E0001A26F000E58
:100AA000A16FC00EA7EC0EF0440E096E020E0A6E86
:100AB0005FEC0DF05AEC0BF05E6E2A0E5E18D8A4B7
:100AC00064EF05F066EF05F068EF05F040EF05F024
:100AD000230E5E18D8A46FEF05F071EF05F073EFE9
:100AE00005F0A6EF05F05E28D8B479EF05F07BEFAE
:100AF00005F05AEF05F05E509FEC0EF0D00E0001AD
:100B0000AD6FFF0EAE6F5E50AF6FB06BAD51AF27E4
:100B1000AE51B0230E0EAF25F66E020EB021F76E69
:100B20000800F5CFB1F0A1C001F0A2C002F0000EA4
:100B3000046E0A0E036E60EC0EF00001B151012448
:100B4000A16F000E0220A26F5AEF05F0010EA7EC74
:100B50000EF0800EA7EC0EF0440E096E020E0A6E27
:100B60005FEC0DF0970E586E000E596E600E5A6EC7
:100B7000020E5B6EA1C05CF0A2C05DF08EEC0DF0C9
:100B8000970E096E000E0A6E5FEC0DF0C00EA7EC1A
:100B90000EF0180E096E020E0A6E5FEC0DF0000EDC
:100BA0005E6EDEEF05F05AEC0BF05E6E5E50D8B470
:100BB000DCEF05F0DEEF05F0D3EF05F0230E5E1855
:100BC000D8A4E5EF05F0E7EF05F0D3EF05F0010E4F
:100BD000A7EC0EF0800EA7EC0EF0440E096E020E8C
:100BE0000A6E5FEC0DF0970E096E000E0A6E5FEC58
:100BF0000DF0DF0E9FEC0EF05D0E096E020E0A6E18
:100C00005FEC0DF0830EC216C280C282C2B20BEF3F
:100C100006F010EF06F00001AD6BAD2B12EF06F001
:100C20000001AD6BAD51D8A418EF06F01AEF06F035
:100C300006EF06F095EC0EF001C06AF002C06BF012
:100C40000A0E2C6ED70E2D6E230E2E6E410E2F6EB9
:100C5000000E136E000E146EA00E156E400E166E72
:100C60006AC001F06BC002F0000E02BEFF0E036E00
:100C7000046E010E0AEC09F001C00FF002C010F082
:100C800003C011F004C012F032EC01F00FC028F0E4
:100C900010C029F011C02AF012C02BF047EC03F06D
:100CA00028C041F029C042F02AC043F02BC044F0D4
:100CB000E3EC0BF041C068F042C069F08D0E586E55
:100CC000000E596E600E5A6E020E5B6E68C05CF0CC
:100CD00069C05DF08EEC0DF0C00EA7EC0EF04F0E6B
:100CE000096E020E0A6E5FEC0DF08D0E096E000E9D
:100CF0000A6E5FEC0DF0DF0E9FEC0EF0430E9FECE2
:100D00000EF0590E096E020E0A6E5FEC0DF0000136
:100D1000A151685D6951800AAD6FA251800AAD5939
:100D2000D8B095EF06F097EF06F099EF06F08082C5
:100D300080946851A15DA251800AAD6F6951800A0B
:100D4000AD59D8B0A6EF06F0A8EF06F0AAEF06F06E
:100D5000809280846851A11907E16951A219D8A431
:100D6000B4EF06F0B6EF06F0B8EF06F0809280948C
:100D7000010EE0EC0DF002EF06F000EF00F01EC0F7
:100D800036F01FC037F020C038F021C039F022C043
:100D90003AF023C03BF024C03CF025C03DF03DBEFE
:100DA000D4EF06F0D7EF06F0010ED8EF06F0000EF4
:100DB000346E356A34503510D8B4E1EF06F0E3EF05
:100DC00006F0F3EF06F03D1E3C1E3B1E3A1E391E98
:100DD000381E371E366C000E3722382239223A224E
:100DE0003B223C223D22000165BFF9EF06F0FBEFFC
:100DF00006F0FCEF06F0669365BF09EF07F065515A
:100E000006E16405D8B007EF07F009EF07F00FEF30
:100E100007F0000E316E010E306E13EF07F064C064
:100E200030F065C031F062C032F063C033F034504E
:100E30003510D8A41EEF07F020EF07F027EF07F0DA
:100E400066A525EF07F027EF07F02AEF07F0320637
:100E5000D8A03306000E3F6E1F0E3E6E000E8C6F44
:100E6000AEEF07F03E06D8A03F066D0E3E24D96EC9
:100E7000000E3F20DA6E36C001F037C002F038C0F5
:100E800003F039C004F03AC005F03BC006F03CC0A6
:100E900007F03DC008F00A0E096E000E0A6E000E43
:100EA0000B6E000E0C6E000E0D6E000E0E6E000E20
:100EB0000F6E000E106EA8EC0AF001C026F002C002
:100EC00027F003C028F004C029F005C02AF006C0AE
:100ED0002BF007C02CF008C02DF026C013F028C05E
:100EE00014F025EC0EF01350300FDF6E3006D8A052
:100EF00031063206D8A0330636C001F037C002F002
:100F000038C003F039C004F03AC005F03BC006F029
:100F10003CC007F03DC008F00A0E096E000E0A6ED4
:100F2000000E0B6E000E0C6E000E0D6E000E0E6E9F
:100F3000000E0F6E000E106EE4EC09F001C036F0EA
:100F400002C037F003C038F004C039F005C03AF0F1
:100F500006C03BF007C03CF008C03DF03FBEB9EF13
:100F600007F03F5008E13E04D8A0B9EF07F0BBEF0F
:100F700007F0ECEF07F036503710381039103A1000
:100F80003B103C103D10D8A4C8EF07F0CAEF07F0A3
:100F900032EF07F031BED7EF07F0315006E13004F1
:100FA000D8B0D5EF07F0D7EF07F032EF07F033BE38
:100FB000E2EF07F0335008E13204D8A0E2EF07F087
:100FC000E4EF07F0ECEF07F0000166B3EAEF07F09B
:100FD000ECEF07F032EF07F034503510D8A4F3EF00
:100FE00007F0F5EF07F0FDEF07F0000166A5FBEF56
:100FF00007F0FDEF07F01BEF08F03E06D8A03F0614
:1010000034503510D8A407EF08F009EF08F00FEFBF
:1010100008F0000E2F6E2B0E2E6E13EF08F0000E50
:101020002F6E2D0E2E6E6D0E3E24D96E000E3F20BB
:10103000DA6E2EC0DFFF1CC011F01DC012F06D0E65
:101040003E24136E000E3F20146E32C015F033C0E4
:1010500016F0CBEC0CF011C01CF012C01DF0120009
:1010600042C0D9FF43C0DAFFDECFF6FFDDCFF7FF86
:101070000800F550250AD8A440EF08F042EF08F028
:10108000EEEF08F042C0D9FF43C0DAFFDE2A000EBF
:10109000DD22000E0001636F000E626F62C066F019
:1010A00063C067F06469656942C0D9FF43C0DAFF75
:1010B000DECFF6FFDDCFF7FF0800F550640AD8B4A5
:1010C00064EF08F066EF08F078EF08F042C0D9FF4F
:1010D00043C0DAFFDECFF6FFDDCFF7FF0800F550A3
:1010E000690AD8A476EF08F078EF08F0B8EF08F0B6
:1010F00042C0D9FF43C0DAFFDE2A000EDD2244C021
:10110000D9FF45C0DAFFDFCF46F0020EDE26DFCF83
:1011100047F0000EDD2246C0D9FF47C0DAFFDECF20
:1011200048F0DDCF49F0000E49BEFF0E4A6E4B6E0F
:101130004C6E4D6E4E6E4F6E40C01CF041C01DF0A7
:1011400048C01EF049C01FF04AC020F04BC021F03B
:101150004CC022F04DC023F04EC024F04FC025F00B
:10116000BFEC06F01CC040F01DC041F009EF09F0D3
:1011700042C0D9FF43C0DAFFDECFF6FFDDCFF7FF75
:101180000800F550250AD8A4C8EF08F0CAEF08F007
:10119000E1EF08F042C0D9FF43C0DAFFDE2A000EBB
:1011A000DD22000E026E250E016E40C003F041C02C
:1011B00004F066EC0CF0000E416E010E406E09EF7B
:1011C00009F042C0D9FF43C0DAFFDE2A000EDD225B
:1011D000000E416E000E406E09EF09F042C0D9FFCB
:1011E00043C0DAFFDECFF6FFDDCFF7FF0800F55092
:1011F000016E026A40C003F041C004F066EC0CF0DE
:1012000042C0D9FF43C0DAFFDE2A000EDD22DBEF49
:1012100008F01200096E0950D8B411EF09F013EF6D
:1012200009F035EF09F004BE1AEF09F018EF09F0E4
:1012300035EF09F001C005F002C006F003C007F069
:1012400004C008F0051E061E071E081E052A000E13
:1012500006220722082205C00BF006C00CF007C0CA
:101260000DF008C00EF03DEF09F001C00BF002C018
:101270000CF003C00DF004C00EF00150021003107A
:101280000410D8A446EF09F048EF09F052EF09F036
:10129000000E016E000E026E000E036E000E046E54
:1012A000E3EF09F0960E0A6E5CEF09F00A2AD89077
:1012B0000E320D320C320B32000E0B14056E000E86
:1012C0000C14066E000E0D14076EFE0E0E14086E42
:1012D0000550061007100810D8A471EF09F073EF3D
:1012E00009F056EF09F081EF09F00A2A010E0B26EA
:1012F000000E0C220D220E22D8900E320D320C322E
:101300000B32000E0B14056E000E0C14066E000E50
:101310000D14076EFF0E0E14086E05500610071010
:101320000810D8A496EF09F098EF09F075EF09F0CE
:10133000A0EF09F00A06D8900B360C360D360E36A3
:101340000DBEA5EF09F0A7EF09F0AFEF09F0020E0F
:101350000A60ADEF09F0AFEF09F09AEF09F00AB0BB
:10136000B4EF09F0B6EF09F0B7EF09F00D9ED89091
:101370000A320AC005F0066A076A086A05C008F062
:10138000076A066A056A05500B1206500C120750D0
:101390000D1208500E120950D8B4D1EF09F0D3EF56
:1013A00009F0DBEF09F004BEDAEF09F0D8EF09F03D
:1013B000DBEF09F00E8E0BC001F00CC002F00DC087
:1013C00003F00EC004F01200000E126E10BEEDEF1E
:1013D00009F0EBEF09F0FFEF09F0101E0F1E0E1ED3
:1013E0000D1E0C1E0B1E0A1E096C000E0A220B227B
:1013F0000C220D220E220F221022010E126E08BEA8
:1014000006EF0AF004EF0AF018EF0AF0081E071EB4
:10141000061E051E041E031E021E016C000E022283
:10142000032204220522062207220822010E121A94
:1014300020EE13F0070EDE6AE806FDE209500A10FE
:101440000B100C100D100E100F101010D8B42BEF45
:101450000AF02DEF0AF07FEF0AF0010E116E3BEF5C
:101460000AF0D89009360A360B360C360D360E3691
:101470000F361036112A10AE40EF0AF042EF0AF094
:1014800031EF0AF0D8901336143615361636173663
:10149000183619361A360950015C0A5002580B509A
:1014A00003580C5004580D5005580E5006580F5054
:1014B000075810500858D8A060EF0AF062EF0AF001
:1014C00073EF0AF00950015E0A50025A0B50035A9A
:1014D0000C50045A0D50055A0E50065A0F50075A18
:1014E0001050085A1380D89010320F320E320D323D
:1014F0000C320B320A320932112E42EF0AF012502E
:10150000D8B485EF0AF087EF0AF097EF0AF01A1EB9
:10151000191E181E171E161E151E141E136C000E03
:101520001422152216221722182219221A2213C059
:1015300001F014C002F015C003F016C004F017C08B
:1015400005F018C006F019C007F01AC008F0120024
:10155000000E126E08BEB1EF0AF0AFEF0AF0C3EF53
:101560000AF0081E071E061E051E041E031E021E8C
:10157000016C000E02220322042205220622072209
:101580000822010E126E10BECAEF0AF0C8EF0AF070
:10159000DAEF0AF0101E0F1E0E1E0D1E0C1E0B1E83
:1015A0000A1E096C000E0A220B220C220D220E22AA
:1015B0000F22102209500A100B100C100D100E10E3
:1015C0000F101010D8B4E7EF0AF0E9EF0AF031EF8E
:1015D0000BF0010E116EF7EF0AF0D89009360A36BB
:1015E0000B360C360D360E360F361036112A10AE6D
:1015F000FCEF0AF0FEEF0AF0EDEF0AF00950015C93
:101600000A5002580B5003580C5004580D500558FE
:101610000E5006580F50075810500858D8A013EF16
:101620000BF015EF0BF025EF0BF00950015E0A509F
:10163000025A0B50035A0C50045A0D50055A0E50C2
:10164000065A0F50075A1050085AD89010320F32CD
:101650000E320D320C320B320A320932112EFEEFED
:101660000AF01250D8B437EF0BF039EF0BF049EF16
:101670000BF0081E071E061E051E041E031E021E7A
:10168000016C000E022203220422052206220722F8
:10169000082201C001F002C002F003C003F004C040
:1016A00004F005C005F006C006F007C007F008C04A
:1016B00008F01200000E026E010E036E03C001F06E
:1016C000010E01168A500118FE0B01188A6E03C024
:1016D00001F0D8900132010E011601468A5001181E
:1016E000FD0B01188A6E03C001F0D8900132D8902A
:1016F0000132010E0116014601468A500118FB0B0A
:1017000001188A6E03C001F0D8900132D8900132DE
:10171000D8900132010E01160146014601468A5059
:101720000118F70B01188A6E030E016E980EE82E51
:10173000FED7012EFCD781A8A0EF0BF0A2EF0BF093
:10174000A4EF0BF0C3EF0BF0022A81AAAAEF0BF073
:10175000ACEF0BF0AEEF0BF0C3EF0BF0022A81AC55
:10176000B4EF0BF0B6EF0BF0B8EF0BF0C3EF0BF0EC
:10177000022AD89003360F0E0364C1EF0BF0C3EFBB
:101780000BF05EEF0BF08A908A928A948A965F50F3
:101790000218D8B4CEEF0BF0D0EF0BF0DCEF0BF06B
:1017A00002C05FF0010E0224F66EF76A020EF72205
:1017B0000800F550E2EF0BF00D0EF66E020EF76E1C
:1017C0000800F5501200433444344A6E4A50D8A4FD
:1017D000ECEF0BF0EEEF0BF0F8EF0BF0000E416EBC
:1017E000000E426E000E436E000E446E65EF0CF06C
:1017F00041C045F042C046F043C047F044C048F005
:10180000200E08EF0CF0D89048324732463245326D
:10181000E82E03EF0CF04550496E438EFF0E411643
:10182000FF0E4216FF0E4316000E4416960E4A5E39
:101830004ABE1FEF0CF01DEF0CF035EF0CF04A50D4
:10184000800A970FD8B027EF0CF029EF0CF02BEFA0
:101850000CF0EEEF0BF0D89044324332423241327A
:101860004A3E2BEF0CF04DEF0CF01F0E4A643BEF9D
:101870000CF03DEF0CF045EF0CF0EEEF0BF0D890D4
:1018800041364236433644364A064A50D8A44BEFD6
:101890000CF04DEF0CF03FEF0CF04950D8B453EF83
:1018A0000CF055EF0CF05DEF0CF0441E431E421E91
:1018B000416C000E42224322442241C041F042C00A
:1018C00042F043C043F044C044F0120003500410FF
:1018D000D8B46DEF0CF06FEF0CF078EF0CF0035014
:1018E0000410D8A476EF0CF078EF0CF07DEF0CF03C
:1018F0000150B4EC0EF0CAEF0CF020EE04F00350EF
:10190000D9260450DA22DE50DE10D8B48AEF0CF06B
:101910008CEF0CF0A7EF0CF020EE04F00350D9266A
:101920000450DA2210EE02F00350E1260450E222C5
:10193000DE50E65CE650800A096EDE50800A0958E7
:10194000D8B0A5EF0CF0A7EF0CF0CAEF0CF020EE2A
:1019500002F00350D9260450DA22DECF05F0DDCFA5
:1019600006F003C0D9FF04C0DAFFDECF07F0DDCFF9
:1019700008F005500724D96E06500820DA6E01C021
:10198000DFFF20EE02F00350D9260450DA22DE2ACF
:10199000000EDD221200000166A1D1EF0CF0D3EFA2
:1019A0000CF0DDEF0CF013C00AF014C00BF011C006
:1019B0000CF012C00DF003EC0EF016BEE2EF0CF0CE
:1019C000E4EF0CF0EAEF0CF015C01AF016C01BF0B3
:1019D000EEEF0CF0000E1B6E000E1A6E000E196E6C
:1019E000000E186E00EF0DF0000E026E200E016E5C
:1019F00011C003F012C004F066EC0CF0184A192A6A
:101A00001A50185C1950800A176E1B50800A17581C
:101A1000D8A00DEF0DF00FEF0DF0F4EF0CF000017A
:101A200066B115EF0DF017EF0DF021EF0DF013C0BB
:101A30000AF014C00BF011C00CF012C00DF003EC52
:101A40000EF013C001F014C002F045EC0EF01A5075
:101A50000124116E1B500220126E120052C056F06B
:101A600053C057F0000E0001616F000E606F4CEF25
:101A70000DF050C040F051C041F0560E426E000EC5
:101A8000436E54C044F055C045F030EC08F040506F
:101A9000000160274150612356C0F6FF57C0F7FF91
:101AA0000800F5500009D8A458EF0DF05AEF0DF0DA
:101AB00039EF0DF060C050F061C051F0120075EFC9
:101AC0000DF009C0F6FF0AC0F7FFF86A010EF764CF
:101AD00003D00800F55005D0F6CFE1FFF7CFE2FFC5
:101AE000E7509FEC0EF0094A0A2A09C0F6FF0AC027
:101AF000F7FFF86A010EF76403D00800F55005D02F
:101B0000F6CFE1FFF7CFE2FFE7500009D8A48BEF53
:101B10000DF08DEF0DF061EF0DF012005C0E000185
:101B2000A56F000EA66F58C0A7F059C0A8F0000E10
:101B3000AA6F000EA96F000EAC6F000EAB6FA70E60
:101B4000506E000E516E5AC052F05BC053F0A50E9D
:101B5000546E000E556E2EEC0DF00001A951582464
:101B6000D96EAA515920DA6E000EDF6E1200036E94
:101B7000000E076E000E066E000E056E000E046E5F
:101B8000C4EF0DF0044A052A0350016E026A0450A6
:101B9000015C05500258D8B0D0EF0DF0D2EF0DF037
:101BA000C2EF0DF0064A072A075009E1790E065CDC
:101BB000D8A0DDEF0DF0DFEF0DF0BCEF0DF012005F
:101BC000026E000E036EF9EF0DF0000E046E1A0E99
:101BD000016EF80EE82EFED7012EFCD700D0042AA5
:101BE000090E0464F6EF0DF0F8EF0DF0E7EF0DF0DD
:101BF000032A0250035CD8A000EF0EF002EF0EF0B3
:101C0000E5EF0DF01200000E106E000E0F6E14EFD7
:101C10000EF00EC001F0026A0CC003F00DC004F01B
:101C200066EC0CF00F4A102A0F500A24D96E10509F
:101C30000B20DA6EDF500E6E0E50D8A422EF0EF09D
:101C400024EF0EF009EF0EF0120014BE32EF0EF08A
:101C5000145006E11304D8B030EF0EF032EF0EF05E
:101C600040EF0EF013C015F014C016F0151E161E2E
:101C7000154A162A15C013F016C014F044EF0EF0E2
:101C800013C013F014C014F0120001C003F002C01E
:101C900004F04DEF0EF0014A022A01C0D9FF02C044
:101CA000DAFFDF50D8A457EF0EF059EF0EF04BEFEC
:101CB0000EF00350015C016E04500258026E1200D7
:101CC00001500302F3CF05F0F4CF06F001500402F7
:101CD000F350062602500302F350062605C001F019
:101CE00006C002F0120000EE60F0430EEE6AE80655
:101CF000FDE15F6A5E6A000EF86E000114EF05F008
:101D0000000EC16E880EC06E000EC36E000EC46E53
:101D1000010EC26E1200380EA7EC0EF00C0EA7ECEE
:101D20000EF0800EA7EC0EF01200C450046E036A91
:101D3000C3500324016E000E0420026E1200086ED0
:101D400008C082FF83808392AEEC0EF01200086E12
:101D500008C082FF8390AEEC0EF012008384010E67
:0A1D6000B7EC0DF08394120012009E
:020000040020DA
:08000000FFFFFFFFFFFFFFFF00
:020000040030CA
:0E000000FF281F3CFFBF85FF03C003E0034045
:00000001FF
